:100000000C9434000C9451000C9451000C94510049
:100010000C9451000C9451000C9451000C9453001A
:100020000C9451000C9451000C9451000C9451000C
:100030000C9451000C9451000C9451000C945100FC
:100040000C9451000C9451000C946A000C94A7007D
:100050000C949D000C9451000C9451000C94510090
:100060000C9451000C94510011241FBECFEFD8E026
:10007000DEBFCDBF21E0A6E0B1E001C01D92AA33F2
:10008000B207E1F711E0A0E0B1E0E0E3F7E002C081
:1000900005900D92A630B107D9F70E9421020C9469
:1000A00096030C9400001F920F920FB60F9211242A
:1000B0008F939F93809108019091090101969093ED
:1000C0000901809308019F918F910F900FBE0F90AF
:1000D0001F9018951F920F920FB60F9211242F9315
:1000E0008F939F93AF93BF93EF93FF93E1ECF0E077
:1000F00080818F7B808395B182E0892785B980914B
:100100000601909107012091C600DC01A65FBE4F59
:100110002C9301969093070180930601808180645F
:100120008083FF91EF91BF91AF919F918F912F911C
:100130000F900FBE0F901F9018951F920F920FB641
:100140000F9211240F900FBE0F901F9018951F92C1
:100150000F920FB60F9211240F900FBE0F901F90A9
:10016000189595B182E0892785B908951F93CF939B
:10017000DF93EC01162F83E090E00E947502FC01F2
:10018000108328813981232B49F499838883E8815E
:10019000F98112821182888199810BC0EA81FB81E9
:1001A00021813281FC0132832183EA81FB819283A8
:1001B00081839B838A83CE01DF91CF911F91089524
:1001C000CF93DF93EC01E881F98180818C3759F07E
:1001D00088819981E881F98121813281398328835D
:1001E0000E940D03F0CF88819981488159812A812D
:1001F0003B814217530731F4EA81FB81218132812F
:100200003B832A83E881F9812181328139832883E4
:100210000E940D03CE01DF91CF910895DC01ED9195
:10022000FC9180818F3439F4A181B281109769F0FB
:100230008C918B3441F0309741F081819281892BF0
:1002400021F080E0089581E0089582E00895CF9341
:10025000DF93EC0188819981009739F0FC012281BC
:100260003381398328830E940D03CE01DF91CF9122
:100270000895FC0180819181892B19F47183608339
:1002800006C0A281B38113967C936E9312977383F9
:100290006283DB0113961C921E921297CF01089580
:1002A000EF92FF920F93CF937C01C62F452B11F451
:1002B000232B11F0CA30A1F484E090E00E94750273
:1002C000FC01818100FB82F98183CA3011F0C08377
:1002D00002C080EC808381818E7F8D7F81830DC001
:1002E00084E090E00E947502FC01C08391819D7FB3
:1002F0001382128291609B7F9183BF01C701CF91CE
:100300000F91FF90EF900C9439010F931F93FC0114
:10031000118210821382128201E010E020E030E0AE
:1003200040E050E060E30E94500120E030E040E017
:1003300050E060E30E94500120E030E040E050E0F7
:1003400060E30E94500120E030E040E050E060E2D5
:100350000E94500100E010E020E030E040E050E07A
:1003600068E20E94500120E030E040E050E06DE0A3
:100370000E94500120E030E040E050E066E00E9442
:10038000500120E030E040E050E061E00E94500188
:100390001F910F910895FC01A081B181109709F47C
:1003A00041C098B18C9182958F70892B88B988B1A2
:1003B000A081B18111969C91492F417050E094E049
:1003C000440F551F9A95E1F74071482B48B988B101
:1003D000A081B18111969C9191FB222720F930E0F8
:1003E00045E0220F331F4A95E1F72072282B28B9E8
:1003F0005A9A5A9888B1807F88B9A081B1811196A4
:100400008C91119782FD07C098B18C918F70892BC8
:1004100088B95A9A5A98CF010E94270128B1207CA6
:1004200028B9089508951092C50083E38093C4000D
:1004300088ED8093C100E2ECF0E0808186628083E9
:10044000089584E090E00E947502909333018093B8
:100450003201FC01118210821382128284E090E04A
:100460000E947502FC01118210821382128280E8C0
:100470008093610082E08093610086E084B98FE31D
:1004800087B984E08AB90E94130280E090E034E0EA
:10049000789423B7217F23BF23B7216023BF88959A
:1004A00023B72E7F23BFE0910601F0910701E75F9C
:1004B000FE4F20812C3761F72091C00025FFE8CF47
:1004C00025B1232725B9FC01E65FFE4F208120934B
:1004D000C60020812C3739F41092070110920601D2
:1004E00080E090E0D5CF0196D3CF0F931F93CF93A9
:1004F000DF938230910510F482E090E0E0913801C2
:10050000F091390120E030E0A0E0B0E0309719F13F
:10051000408151810281138148175907C8F084171F
:10052000950769F4109731F012960C931297139671
:100530001C9327C0009338011093390122C0211564
:10054000310519F04217530718F49A01BD01EF0164
:10055000DF01F801DBCF21153105F9F0281B390B3C
:100560002430310580F48A819B816115710521F069
:10057000FB019383828304C09093390180933801F7
:10058000FE01329644C0FE01E20FF31F8193919366
:1005900022503109398328833AC0209136013091A5
:1005A0003701232B41F42091020130910301309354
:1005B000370120933601209100013091010121156E
:1005C000310541F42DB73EB740910401509105012A
:1005D000241B350BE0913601F0913701E217F30748
:1005E000A0F42E1B3F0B2817390778F0AC014E5FA3
:1005F0005F4F2417350748F04E0F5F1F50933701A8
:10060000409336018193919302C0E0E0F0E0CF0186
:10061000DF91CF911F910F910895CF93DF930097B2
:1006200009F481C0FC01329713821282A091380133
:10063000B0913901109781F420813181820F931F8D
:1006400020913601309137012817390751F5F09381
:100650003701E093360167C0ED0120E030E0CE17AE
:10066000DF0740F44A815B819E0141155105F1F09D
:10067000EA01F5CFD383C28340815181840F951F56
:10068000C817D90759F488819981840F951F02965C
:10069000918380838A819B81938382832115310595
:1006A00029F4F0933901E09338013DC0E901FB835F
:1006B000EA8349915991C40FD51FEC17FD0761F4E6
:1006C00080819181840F951F0296E9019983888327
:1006D000828193819B838A83E0E0F0E012968D9182
:1006E0009C911397009719F0FD01DC01F7CF8D91D4
:1006F0009C9111979D012E5F3F4F820F931F209178
:100700003601309137012817390769F4309729F4F9
:10071000109239011092380102C013821282B093F4
:100720003701A0933601DF91CF910895F894FFCF60
:0607300000003A01200068
:00000001FF
