:100000000C9434000C9451000C9451000C94510049
:100010000C9451000C9451000C9451000C9453001A
:100020000C9451000C9451000C9451000C9451000C
:100030000C9451000C9451000C9451000C945100FC
:100040000C9451000C9451000C946A000C94B20072
:100050000C94A8000C9451000C9451000C94510085
:100060000C9451000C94510011241FBECFEFD8E026
:10007000DEBFCDBF21E0A6E0B1E001C01D92A131FD
:10008000B207E1F711E0A0E0B1E0E8EBF7E002C071
:1000900005900D92A630B107D9F70E942A020C9460
:1000A000DA030C9400001F920F920FB60F921124E6
:1000B0008F939F93809106019091070101969093F1
:1000C0000701809306019F918F910F900FBE0F90B3
:1000D0001F9018951F920F920FB60F9211242F9315
:1000E0003F934F935F936F937F938F939F93AF93C0
:1000F000BF93CF93DF93EF93FF93C1ECD0E0888160
:100100008F7B88836091C60095B182E0892785B98D
:1001100080910801909109010E94C100909309010A
:1001200080930801888180648883FF91EF91DF913B
:10013000CF91BF91AF919F918F917F916F915F917F
:100140004F913F912F910F900FBE0F901F901895D8
:100150001F920F920FB60F9211240F900FBE0F90A7
:100160001F9018951F920F920FB60F9211240F90A7
:100170000FBE0F901F90189595B182E0892785B921
:1001800008951F93CF93DF93EC01162F83E090E047
:100190000E94B902FC011282118210838881998128
:1001A000892B59F4F983E883E881F981128211825D
:1001B000888199819D838C8310C0AC81BD8111960B
:1001C0008D919C91129792838183AC81BD8112960F
:1001D000FC93EE931197FD83EC83CE01DF91CF91D9
:1001E0001F910895CF93DF93EC0188819981892B2A
:1001F00041F1E881F98180818C37C1F4888199814E
:10020000488159812C813D814217530731F4EC819B
:10021000FD81218132813D832C83E881F981218117
:100220003281398328830E9451030BC088819981D0
:10023000E881F98121813281398328830E94510329
:10024000D4CFCE01DF91CF910895DC01ED91FC91E7
:1002500080818F3439F4A181B281109769F08C913B
:100260008B3441F0309741F081819281892B21F0CC
:1002700080E0089581E0089582E00895CF93DF93B0
:10028000EC0188819981009739F0FC01228133814A
:10029000398328830E945103CE01DF91CF910895C5
:1002A000FC0180819181892B19F47183608306C0E0
:1002B000A281B38113967C936E93129773836283AA
:1002C000DB0113961C921E921297CF010895EF92B4
:1002D000FF920F93CF937C01C62F452B11F4232B54
:1002E00011F0CA30A1F484E090E00E94B902FC0150
:1002F000818100FB82F98183CA3011F0C08302C082
:1003000080EC808381818E7F8D7F81830DC084E02E
:1003100090E00E94B902FC01C08391819D7F13820D
:10032000128291609B7F9183BF01C701CF910F9192
:10033000FF90EF900C9450010F931F93FC011182DA
:1003400010821382128201E010E020E030E040E0F1
:1003500050E060E30E94670120E030E040E050E0C0
:1003600060E30E94670120E030E040E050E060E39D
:100370000E94670120E030E040E050E060E20E942F
:10038000670100E010E020E030E040E050E068E28B
:100390000E94670120E030E040E050E06DE00E9404
:1003A000670120E030E040E050E066E00E94670135
:1003B00020E030E040E050E061E00E9467011F91E2
:1003C0000F910895FC01A081B181109709F441C0FB
:1003D00098B18C9182958F70892B88B988B1A08152
:1003E000B18111969C91492F417050E094E0440FE7
:1003F000551F9A95E1F74071482B48B988B1A08103
:10040000B18111969C9191FB222720F930E045E0C3
:10041000220F331F4A95E1F72072282B28B95A9AE8
:100420005A9888B1807F88B9A081B18111968C914A
:10043000119782FD07C098B18C918F70892B88B974
:100440005A9A5A98CF010E943E0128B1207C28B9BF
:100450000895089586E090E00E94B9029093090102
:1004600080930801FC01118210821582148284E0BD
:1004700090E00E94B902FC01118210821382128264
:1004800080E88093610082E08093610087E084B916
:100490008FE387B984E08AB91092C5008CE080931D
:1004A000C40088ED8093C1008091C2008662809371
:1004B000C200C0E0D0E0789483B7817F83BF83B768
:1004C000816083BF889583B78E7F83BFE0910801E9
:1004D000F091090184819581892B69F30480F5816C
:1004E000E02D80818C3739F72A9A8091C100806491
:1004F0008093C100E0910801F0910901209711F467
:10050000C081D1818091C00085FF1CC08081918114
:10051000C817D907B9F088818093C60088818C37C5
:1005200021F58091C1008F7B8093C10080910801EB
:10053000909109010E94F2008091C1008760809330
:10054000C100B9CF80819181C817D90709F0B3CF15
:1005500088818093C60088818C3739F480910801A6
:10056000909109010E94F200A6CF0980DA81C02D86
:10057000A2CF0F931F93CF93DF938230910510F496
:1005800082E090E0E0910F01F091100120E030E076
:10059000A0E0B0E0309719F14081518102811381D0
:1005A00048175907C8F08417950769F4109731F078
:1005B00012960C93129713961C9327C000930F0169
:1005C0001093100122C02115310519F0421753076D
:1005D00018F49A01BD01EF01DF01F801DBCF21150D
:1005E0003105F9F0281B390B2430310580F48A815C
:1005F0009B816115710521F0FB019383828304C007
:100600009093100180930F01FE01329644C0FE01C9
:10061000E20FF31F8193919322503109398328838C
:100620003AC020910D0130910E01232B41F420910D
:1006300002013091030130930E0120930D012091AE
:100640000001309101012115310541F42DB73EB76C
:100650004091040150910501241B350BE0910D01DF
:10066000F0910E01E217F307A0F42E1B3F0B2817A1
:10067000390778F0AC014E5F5F4F2417350748F01B
:100680004E0F5F1F50930E0140930D018193919384
:1006900002C0E0E0F0E0CF01DF91CF911F910F9118
:1006A0000895CF93DF93009709F481C0FC0132973E
:1006B00013821282A0910F01B0911001109781F462
:1006C00020813181820F931F20910D0130910E0105
:1006D0002817390751F5F0930E01E0930D0167C01B
:1006E000ED0120E030E0CE17DF0740F44A815B8166
:1006F0009E0141155105F1F0EA01F5CFD383C28384
:1007000040815181840F951FC817D90759F48881FA
:100710009981840F951F0296918380838A819B81A2
:10072000938382832115310529F4F0931001E0931E
:100730000F013DC0E901FB83EA8349915991C40F40
:10074000D51FEC17FD0761F480819181840F951FFF
:100750000296E90199838883828193819B838A83AE
:10076000E0E0F0E012968D919C911397009719F0BC
:10077000FD01DC01F7CF8D919C9111979D012E5FBA
:100780003F4F820F931F20910D0130910E012817CA
:10079000390769F4309729F41092100110920F0173
:1007A00002C013821282B0930E01A0930D01DF915B
:0807B000CF910895F894FFCFEA
:0607B80000001101200009
:00000001FF
